{
  "contractName": "Insta",
  "abi": [
    {
      "inputs": [
        {
          "internalType": "address",
          "name": "",
          "type": "address"
        }
      ],
      "name": "accountExist",
      "outputs": [
        {
          "internalType": "bool",
          "name": "",
          "type": "bool"
        }
      ],
      "stateMutability": "view",
      "type": "function",
      "constant": true
    },
    {
      "inputs": [
        {
          "internalType": "address",
          "name": "",
          "type": "address"
        }
      ],
      "name": "accounts",
      "outputs": [
        {
          "internalType": "address",
          "name": "acc",
          "type": "address"
        }
      ],
      "stateMutability": "view",
      "type": "function",
      "constant": true
    },
    {
      "inputs": [
        {
          "internalType": "uint256",
          "name": "",
          "type": "uint256"
        }
      ],
      "name": "accs",
      "outputs": [
        {
          "internalType": "address",
          "name": "",
          "type": "address"
        }
      ],
      "stateMutability": "view",
      "type": "function",
      "constant": true
    },
    {
      "inputs": [
        {
          "internalType": "bytes32",
          "name": "",
          "type": "bytes32"
        }
      ],
      "name": "mapPosts",
      "outputs": [
        {
          "internalType": "address",
          "name": "poster",
          "type": "address"
        },
        {
          "internalType": "string",
          "name": "image",
          "type": "string"
        },
        {
          "internalType": "string",
          "name": "caption",
          "type": "string"
        },
        {
          "internalType": "bytes32",
          "name": "id",
          "type": "bytes32"
        }
      ],
      "stateMutability": "view",
      "type": "function",
      "constant": true
    },
    {
      "inputs": [],
      "name": "addAccount",
      "outputs": [],
      "stateMutability": "nonpayable",
      "type": "function"
    },
    {
      "inputs": [
        {
          "internalType": "string",
          "name": "image",
          "type": "string"
        },
        {
          "internalType": "string",
          "name": "caption",
          "type": "string"
        }
      ],
      "name": "post",
      "outputs": [],
      "stateMutability": "nonpayable",
      "type": "function"
    },
    {
      "inputs": [],
      "name": "getPosts",
      "outputs": [
        {
          "components": [
            {
              "internalType": "address",
              "name": "poster",
              "type": "address"
            },
            {
              "internalType": "string",
              "name": "image",
              "type": "string"
            },
            {
              "internalType": "string",
              "name": "caption",
              "type": "string"
            },
            {
              "internalType": "string[]",
              "name": "commentors",
              "type": "string[]"
            },
            {
              "internalType": "string[]",
              "name": "comments",
              "type": "string[]"
            },
            {
              "internalType": "bytes32",
              "name": "id",
              "type": "bytes32"
            }
          ],
          "internalType": "struct Insta.Posts[]",
          "name": "",
          "type": "tuple[]"
        }
      ],
      "stateMutability": "view",
      "type": "function",
      "constant": true
    },
    {
      "inputs": [
        {
          "internalType": "bytes32",
          "name": "_index",
          "type": "bytes32"
        },
        {
          "internalType": "string",
          "name": "_comment",
          "type": "string"
        },
        {
          "internalType": "string",
          "name": "sender",
          "type": "string"
        }
      ],
      "name": "comment",
      "outputs": [],
      "stateMutability": "nonpayable",
      "type": "function"
    },
    {
      "inputs": [
        {
          "internalType": "address",
          "name": "user",
          "type": "address"
        }
      ],
      "name": "getImageData",
      "outputs": [
        {
          "internalType": "string[]",
          "name": "",
          "type": "string[]"
        }
      ],
      "stateMutability": "view",
      "type": "function",
      "constant": true
    },
    {
      "inputs": [],
      "name": "getAccs",
      "outputs": [
        {
          "internalType": "address[]",
          "name": "",
          "type": "address[]"
        }
      ],
      "stateMutability": "view",
      "type": "function",
      "constant": true
    },
    {
      "inputs": [
        {
          "internalType": "bytes32",
          "name": "index",
          "type": "bytes32"
        }
      ],
      "name": "getComments",
      "outputs": [
        {
          "internalType": "string[]",
          "name": "",
          "type": "string[]"
        }
      ],
      "stateMutability": "view",
      "type": "function",
      "constant": true
    },
    {
      "inputs": [
        {
          "internalType": "bytes32",
          "name": "index",
          "type": "bytes32"
        }
      ],
      "name": "getCommentors",
      "outputs": [
        {
          "internalType": "string[]",
          "name": "",
          "type": "string[]"
        }
      ],
      "stateMutability": "view",
      "type": "function",
      "constant": true
    }
  ],
  "bytecode": "0x608060405234801561001057600080fd5b50611cad806100206000396000f3fe608060405234801561001057600080fd5b50600436106100b45760003560e01c80635e5c06e2116100715780635e5c06e21461017c5780635efd8cc0146101ac5780636f145dd2146101dc578063986ba66c1461020c578063e3156a601461022a578063f7ba787d1461025a576100b4565b80630ae1b13d146100b95780631d832265146100d557806333b4971c146100f15780633725ac11146100fb57806341f3004a1461012e578063598e33c21461014c575b600080fd5b6100d360048036038101906100ce919061142d565b61028a565b005b6100ef60048036038101906100ea91906113a2565b610594565b005b6100f961062d565b005b61011560048036038101906101109190611375565b610819565b604051610125949392919061189a565b60405180910390f35b610136610979565b6040516101439190611931565b60405180910390f35b61016660048036038101906101619190611375565b610d0e565b604051610173919061190f565b60405180910390f35b61019660048036038101906101919190611348565b610dfd565b6040516101a3919061187f565b60405180910390f35b6101c660048036038101906101c19190611348565b610e3b565b6040516101d3919061190f565b60405180910390f35b6101f660048036038101906101f19190611348565b610f56565b6040516102039190611953565b60405180910390f35b610214610f76565b60405161022191906118ed565b60405180910390f35b610244600480360381019061023f91906114a5565b611004565b604051610251919061187f565b60405180910390f35b610274600480360381019061026f9190611375565b611043565b604051610281919061190f565b60405180910390f35b6060600083836040516020016102a192919061185b565b60405160208183030381529060405280519060200120905060046040518060c001604052803373ffffffffffffffffffffffffffffffffffffffff16815260200186815260200185815260200184815260200184815260200183815250908060018154018082558091505060019003906000526020600020906006020160009091909190915060008201518160000160006101000a81548173ffffffffffffffffffffffffffffffffffffffff021916908373ffffffffffffffffffffffffffffffffffffffff160217905550602082015181600101908051906020019061038a929190611132565b5060408201518160020190805190602001906103a7929190611132565b5060608201518160030190805190602001906103c49291906111b8565b5060808201518160040190805190602001906103e19291906111b8565b5060a0820151816005015550506040518060c001604052803373ffffffffffffffffffffffffffffffffffffffff168152602001858152602001848152602001838152602001838152602001828152506003600083815260200190815260200160002060008201518160000160006101000a81548173ffffffffffffffffffffffffffffffffffffffff021916908373ffffffffffffffffffffffffffffffffffffffff16021790555060208201518160010190805190602001906104a7929190611132565b5060408201518160020190805190602001906104c4929190611132565b5060608201518160030190805190602001906104e19291906111b8565b5060808201518160040190805190602001906104fe9291906111b8565b5060a082015181600501559050506000600260003373ffffffffffffffffffffffffffffffffffffffff1673ffffffffffffffffffffffffffffffffffffffff1681526020019081526020016000209050806001018590806001815401808255809150506001900390600052602060002001600090919091909150908051906020019061058c929190611132565b505050505050565b600060036000858152602001908152602001600020905080600301829080600181540180825580915050600190039060005260206000200160009091909190915090805190602001906105e8929190611132565b508060040183908060018154018082558091505060019003906000526020600020016000909190919091509080519060200190610626929190611132565b5050505050565b600015156000803373ffffffffffffffffffffffffffffffffffffffff1673ffffffffffffffffffffffffffffffffffffffff16815260200190815260200160002060009054906101000a900460ff1615151461068957600080fd5b60016000803373ffffffffffffffffffffffffffffffffffffffff1673ffffffffffffffffffffffffffffffffffffffff16815260200190815260200160002060006101000a81548160ff021916908315150217905550606060405180604001604052803373ffffffffffffffffffffffffffffffffffffffff16815260200182815250600260003373ffffffffffffffffffffffffffffffffffffffff1673ffffffffffffffffffffffffffffffffffffffff16815260200190815260200160002060008201518160000160006101000a81548173ffffffffffffffffffffffffffffffffffffffff021916908373ffffffffffffffffffffffffffffffffffffffff16021790555060208201518160010190805190602001906107af9291906111b8565b509050506001339080600181540180825580915050600190039060005260206000200160009091909190916101000a81548173ffffffffffffffffffffffffffffffffffffffff021916908373ffffffffffffffffffffffffffffffffffffffff16021790555050565b60036020528060005260406000206000915090508060000160009054906101000a900473ffffffffffffffffffffffffffffffffffffffff169080600101805461086290611b4c565b80601f016020809104026020016040519081016040528092919081815260200182805461088e90611b4c565b80156108db5780601f106108b0576101008083540402835291602001916108db565b820191906000526020600020905b8154815290600101906020018083116108be57829003601f168201915b5050505050908060020180546108f090611b4c565b80601f016020809104026020016040519081016040528092919081815260200182805461091c90611b4c565b80156109695780601f1061093e57610100808354040283529160200191610969565b820191906000526020600020905b81548152906001019060200180831161094c57829003601f168201915b5050505050908060050154905084565b60606004805480602002602001604051908101604052809291908181526020016000905b82821015610d0557838290600052602060002090600602016040518060c00160405290816000820160009054906101000a900473ffffffffffffffffffffffffffffffffffffffff1673ffffffffffffffffffffffffffffffffffffffff1673ffffffffffffffffffffffffffffffffffffffff168152602001600182018054610a2690611b4c565b80601f0160208091040260200160405190810160405280929190818152602001828054610a5290611b4c565b8015610a9f5780601f10610a7457610100808354040283529160200191610a9f565b820191906000526020600020905b815481529060010190602001808311610a8257829003601f168201915b50505050508152602001600282018054610ab890611b4c565b80601f0160208091040260200160405190810160405280929190818152602001828054610ae490611b4c565b8015610b315780601f10610b0657610100808354040283529160200191610b31565b820191906000526020600020905b815481529060010190602001808311610b1457829003601f168201915b5050505050815260200160038201805480602002602001604051908101604052809291908181526020016000905b82821015610c0b578382906000526020600020018054610b7e90611b4c565b80601f0160208091040260200160405190810160405280929190818152602001828054610baa90611b4c565b8015610bf75780601f10610bcc57610100808354040283529160200191610bf7565b820191906000526020600020905b815481529060010190602001808311610bda57829003601f168201915b505050505081526020019060010190610b5f565b50505050815260200160048201805480602002602001604051908101604052809291908181526020016000905b82821015610ce4578382906000526020600020018054610c5790611b4c565b80601f0160208091040260200160405190810160405280929190818152602001828054610c8390611b4c565b8015610cd05780601f10610ca557610100808354040283529160200191610cd0565b820191906000526020600020905b815481529060010190602001808311610cb357829003601f168201915b505050505081526020019060010190610c38565b5050505081526020016005820154815250508152602001906001019061099d565b50505050905090565b606060036000838152602001908152602001600020600301805480602002602001604051908101604052809291908181526020016000905b82821015610df2578382906000526020600020018054610d6590611b4c565b80601f0160208091040260200160405190810160405280929190818152602001828054610d9190611b4c565b8015610dde5780601f10610db357610100808354040283529160200191610dde565b820191906000526020600020905b815481529060010190602001808311610dc157829003601f168201915b505050505081526020019060010190610d46565b505050509050919050565b60026020528060005260406000206000915090508060000160009054906101000a900473ffffffffffffffffffffffffffffffffffffffff16905081565b6060600260008373ffffffffffffffffffffffffffffffffffffffff1673ffffffffffffffffffffffffffffffffffffffff168152602001908152602001600020600101805480602002602001604051908101604052809291908181526020016000905b82821015610f4b578382906000526020600020018054610ebe90611b4c565b80601f0160208091040260200160405190810160405280929190818152602001828054610eea90611b4c565b8015610f375780601f10610f0c57610100808354040283529160200191610f37565b820191906000526020600020905b815481529060010190602001808311610f1a57829003601f168201915b505050505081526020019060010190610e9f565b505050509050919050565b60006020528060005260406000206000915054906101000a900460ff1681565b60606001805480602002602001604051908101604052809291908181526020018280548015610ffa57602002820191906000526020600020905b8160009054906101000a900473ffffffffffffffffffffffffffffffffffffffff1673ffffffffffffffffffffffffffffffffffffffff1681526020019060010190808311610fb0575b5050505050905090565b6001818154811061101457600080fd5b906000526020600020016000915054906101000a900473ffffffffffffffffffffffffffffffffffffffff1681565b606060036000838152602001908152602001600020600401805480602002602001604051908101604052809291908181526020016000905b8282101561112757838290600052602060002001805461109a90611b4c565b80601f01602080910402602001604051908101604052809291908181526020018280546110c690611b4c565b80156111135780601f106110e857610100808354040283529160200191611113565b820191906000526020600020905b8154815290600101906020018083116110f657829003601f168201915b50505050508152602001906001019061107b565b505050509050919050565b82805461113e90611b4c565b90600052602060002090601f01602090048101928261116057600085556111a7565b82601f1061117957805160ff19168380011785556111a7565b828001600101855582156111a7579182015b828111156111a657825182559160200191906001019061118b565b5b5090506111b49190611218565b5090565b828054828255906000526020600020908101928215611207579160200282015b828111156112065782518290805190602001906111f6929190611132565b50916020019190600101906111d8565b5b5090506112149190611235565b5090565b5b80821115611231576000816000905550600101611219565b5090565b5b80821115611255576000818161124c9190611259565b50600101611236565b5090565b50805461126590611b4c565b6000825580601f106112775750611296565b601f0160209004906000526020600020908101906112959190611218565b5b50565b60006112ac6112a784611993565b61196e565b9050828152602081018484840111156112c8576112c7611c12565b5b6112d3848285611b0a565b509392505050565b6000813590506112ea81611c32565b92915050565b6000813590506112ff81611c49565b92915050565b600082601f83011261131a57611319611c0d565b5b813561132a848260208601611299565b91505092915050565b60008135905061134281611c60565b92915050565b60006020828403121561135e5761135d611c1c565b5b600061136c848285016112db565b91505092915050565b60006020828403121561138b5761138a611c1c565b5b6000611399848285016112f0565b91505092915050565b6000806000606084860312156113bb576113ba611c1c565b5b60006113c9868287016112f0565b935050602084013567ffffffffffffffff8111156113ea576113e9611c17565b5b6113f686828701611305565b925050604084013567ffffffffffffffff81111561141757611416611c17565b5b61142386828701611305565b9150509250925092565b6000806040838503121561144457611443611c1c565b5b600083013567ffffffffffffffff81111561146257611461611c17565b5b61146e85828601611305565b925050602083013567ffffffffffffffff81111561148f5761148e611c17565b5b61149b85828601611305565b9150509250929050565b6000602082840312156114bb576114ba611c1c565b5b60006114c984828501611333565b91505092915050565b60006114de8383611512565b60208301905092915050565b60006114f6838361171a565b905092915050565b600061150a83836117bd565b905092915050565b61151b81611ab8565b82525050565b61152a81611ab8565b82525050565b600061153b826119f4565b6115458185611a47565b9350611550836119c4565b8060005b8381101561158157815161156888826114d2565b975061157383611a20565b925050600181019050611554565b5085935050505092915050565b6000611599826119ff565b6115a38185611a58565b9350836020820285016115b5856119d4565b8060005b858110156115f157848403895281516115d285826114ea565b94506115dd83611a2d565b925060208a019950506001810190506115b9565b50829750879550505050505092915050565b600061160e826119ff565b6116188185611a69565b93508360208202850161162a856119d4565b8060005b85811015611666578484038952815161164785826114ea565b945061165283611a2d565b925060208a0199505060018101905061162e565b50829750879550505050505092915050565b600061168382611a0a565b61168d8185611a7a565b93508360208202850161169f856119e4565b8060005b858110156116db57848403895281516116bc85826114fe565b94506116c783611a3a565b925060208a019950506001810190506116a3565b50829750879550505050505092915050565b6116f681611aca565b82525050565b61170581611ad6565b82525050565b61171481611ad6565b82525050565b600061172582611a15565b61172f8185611a8b565b935061173f818560208601611b19565b61174881611c21565b840191505092915050565b600061175e82611a15565b6117688185611a9c565b9350611778818560208601611b19565b61178181611c21565b840191505092915050565b600061179782611a15565b6117a18185611aad565b93506117b1818560208601611b19565b80840191505092915050565b600060c0830160008301516117d56000860182611512565b50602083015184820360208601526117ed828261171a565b91505060408301518482036040860152611807828261171a565b91505060608301518482036060860152611821828261158e565b9150506080830151848203608086015261183b828261158e565b91505060a083015161185060a08601826116fc565b508091505092915050565b6000611867828561178c565b9150611873828461178c565b91508190509392505050565b60006020820190506118946000830184611521565b92915050565b60006080820190506118af6000830187611521565b81810360208301526118c18186611753565b905081810360408301526118d58185611753565b90506118e4606083018461170b565b95945050505050565b600060208201905081810360008301526119078184611530565b905092915050565b600060208201905081810360008301526119298184611603565b905092915050565b6000602082019050818103600083015261194b8184611678565b905092915050565b600060208201905061196860008301846116ed565b92915050565b6000611978611989565b90506119848282611b7e565b919050565b6000604051905090565b600067ffffffffffffffff8211156119ae576119ad611bde565b5b6119b782611c21565b9050602081019050919050565b6000819050602082019050919050565b6000819050602082019050919050565b6000819050602082019050919050565b600081519050919050565b600081519050919050565b600081519050919050565b600081519050919050565b6000602082019050919050565b6000602082019050919050565b6000602082019050919050565b600082825260208201905092915050565b600082825260208201905092915050565b600082825260208201905092915050565b600082825260208201905092915050565b600082825260208201905092915050565b600082825260208201905092915050565b600081905092915050565b6000611ac382611ae0565b9050919050565b60008115159050919050565b6000819050919050565b600073ffffffffffffffffffffffffffffffffffffffff82169050919050565b6000819050919050565b82818337600083830152505050565b60005b83811015611b37578082015181840152602081019050611b1c565b83811115611b46576000848401525b50505050565b60006002820490506001821680611b6457607f821691505b60208210811415611b7857611b77611baf565b5b50919050565b611b8782611c21565b810181811067ffffffffffffffff82111715611ba657611ba5611bde565b5b80604052505050565b7f4e487b7100000000000000000000000000000000000000000000000000000000600052602260045260246000fd5b7f4e487b7100000000000000000000000000000000000000000000000000000000600052604160045260246000fd5b600080fd5b600080fd5b600080fd5b600080fd5b6000601f19601f8301169050919050565b611c3b81611ab8565b8114611c4657600080fd5b50565b611c5281611ad6565b8114611c5d57600080fd5b50565b611c6981611b00565b8114611c7457600080fd5b5056fea264697066735822122091a1f1f679bb324eab1b9939dffcb1904522d7414a3fa5a6b1bdf59e7c1304c764736f6c63430008070033",
  "immutableReferences": {},
  "source": "// SPDX-License-Identifier: GPL-3.0\r\npragma solidity >=0.7.0 <0.9.0;\r\n\r\ncontract Insta {\r\n    \r\n    /*struct Post{\r\n        address image;\r\n    }*/\r\n    \r\n    mapping(address => bool) public accountExist;\r\n    address[] public accs;\r\n    /*struct Comments{\r\n        address commenter;\r\n        string comment;\r\n    }*/\r\n    \r\n    struct Posts{\r\n        address poster;\r\n        string image;\r\n        string caption;\r\n        string[] commentors;\r\n        string[] comments;\r\n        bytes32 id;\r\n     //   Comments[] comments;\r\n    }\r\n    \r\n    \r\n    struct Account{\r\n        address acc;\r\n        string[] images;\r\n    }\r\n    \r\n    mapping(address => Account) public accounts;\r\n    mapping(bytes32 => Posts) public mapPosts;\r\n    Posts[] posts;\r\n    \r\n    \r\n    function addAccount() public{\r\n        //Post[] memory postArray;\r\n        require(accountExist[msg.sender] == false);\r\n        accountExist[msg.sender] = true;\r\n        string[] memory postArray;\r\n        accounts[msg.sender] = Account(msg.sender,postArray);\r\n        accs.push(msg.sender);\r\n    }\r\n    \r\n    function post(string memory image,string memory caption) public {\r\n        \r\n        string[] memory placeholder;\r\n        \r\n        bytes32 data = keccak256(abi.encodePacked(image,caption));\r\n        \r\n        posts.push(Posts(msg.sender,image,caption,placeholder,placeholder,data));\r\n\r\n        mapPosts[data] = Posts(msg.sender,image,caption,placeholder,placeholder,data);\r\n        \r\n        Account storage account = accounts[msg.sender];\r\n        \r\n        account.images.push(image);\r\n        //allPosts[posts.length] = comment;\r\n    }\r\n    function getPosts()public view returns( Posts[] memory){\r\n        return posts;\r\n    }\r\n\r\n    function comment(bytes32 _index, string memory _comment, string memory sender) public{\r\n        \r\n        Posts storage posty = mapPosts[_index];\r\n        \r\n        posty.commentors.push(sender);\r\n        posty.comments.push(_comment);\r\n        \r\n    }\r\n\r\n    function getImageData( address user )public view returns( string[] memory){\r\n        return accounts[user].images;\r\n    }\r\n    function getAccs() public view returns(address[] memory){\r\n        return accs;\r\n    }\r\n    function getComments(bytes32 index) public view returns( string[] memory){\r\n        return mapPosts[index].comments;\r\n        \r\n    }\r\n    function getCommentors(bytes32 index) public view returns( string[] memory){\r\n        return mapPosts[index].commentors;\r\n        \r\n    }\r\n    \r\n}\r\n",
  "sourcePath": "C:/Users/Acer/instagram-clone/contracts/Insta.sol",
  "compiler": {
    "name": "solc",
    "version": "0.8.7+commit.e28d00a7.Emscripten.clang"
  },
  "schemaVersion": "3.4.1",
  "updatedAt": "2021-09-29T16:55:27.869Z",
  "networkType": "ethereum",
  "devdoc": {
    "kind": "dev",
    "methods": {},
    "version": 1
  },
  "userdoc": {
    "kind": "user",
    "methods": {},
    "version": 1
  }
}